:100000000C9461000C9473000C9473000C947300B6
:100010000C9473000C9473000C9473000C94730094
:100020000C9473000C9473000C9473000C94730084
:100030000C9473000C9473000C9473000C94730074
:100040000C9429010C9473000C9473000C947300AD
:100050000C9473000C9473000C9473000C94730054
:100060000C9473000C94730000000009000302005C
:10007000000405080000000000000000000000016E
:10008000020408102040800102040810200102042C
:100090000810204080400404040404040404020204
:1000A000020202020303030303030202030000002F
:1000B00000250028002B0000000000240027002A53
:1000C000000011241FBECFEFD8E0DEBFCDBF21E07E
:1000D000A0E0B1E001C01D92A930B207E1F70E9493
:1000E000A0020C94B0020C94000061E088E00E9431
:1000F000350261E089E00E94350261E08AE00E94F9
:10010000350261E08BE00E94350261E08CE00E94E4
:10011000350261E08DE00E94350261E08EE00E94D0
:10012000350261E08FE00E94350261E080E10E94CB
:10013000350261E081E10E94350261E082E10E94C6
:10014000350261E083E10E94350261E084E10E94B2
:10015000350261E085E10C94350261E088E00E949F
:10016000710261E089E00E94710261E08AE00E9410
:10017000710261E08BE00E94710261E08CE00E94FC
:10018000710261E08DE00E94710261E08EE00E94E8
:10019000710261E08FE00E94710261E080E10E94E3
:1001A000710261E081E10E94710261E082E10E94DE
:1001B000710261E083E10E94710261E084E10E94CA
:1001C000710261E085E10E94710264E670E080E006
:1001D00090E00E94980160E088E00E94710260E077
:1001E00089E00E94710260E08AE00E94710260E092
:1001F0008BE00E94710260E08CE00E94710260E07E
:100200008DE00E94710260E08EE00E94710260E069
:100210008FE00E94710260E080E10E94710260E064
:1002200081E10E94710260E082E10E94710260E05F
:1002300083E10E94710260E084E10E94710260E04B
:1002400085E10E94710264E670E080E090E00C9429
:1002500098011F920F920FB60F9211242F933F9384
:100260008F939F93AF93BF9380910101909102016F
:10027000A0910301B09104013091000126E0230F09
:100280002D3758F50296A11DB11D209300018093D2
:10029000010190930201A0930301B09304018091A6
:1002A000050190910601A0910701B0910801019606
:1002B000A11DB11D8093050190930601A093070134
:1002C000B0930801BF91AF919F918F913F912F9172
:1002D0000F900FBE0F901F90189529E8230F0396DB
:1002E000A11DB11DD2CF3FB7F89480910501909127
:1002F0000601A0910701B091080126B5A89B05C091
:100300002F3F19F00196A11DB11D3FBFBA2FA92F94
:10031000982F8827BC01CD01620F711D811D911D91
:1003200043E0660F771F881F991F4A95D1F70895FC
:100330008F929F92AF92BF92CF92DF92EF92FF92F5
:100340006B017C010E9473014B015C01C114D1045B
:10035000E104F104E9F00E94AF020E947301681900
:1003600079098A099B09683E73408105910570F3FC
:1003700021E0C21AD108E108F10888EE880E83E076
:10038000981EA11CB11CC114D104E104F10429F789
:10039000FF90EF90DF90CF90BF90AF909F908F90A5
:1003A0000895789484B5826084BD84B5816084BDED
:1003B00085B5826085BD85B5816085BDEEE6F0E0DE
:1003C000808181608083E1E8F0E01082808182603A
:1003D0008083808181608083E0E8F0E080818160BB
:1003E0008083E1EBF0E0808184608083E0EBF0E0EB
:1003F000808181608083EAE7F0E08081846080838F
:1004000080818260808380818E7F8083808180680C
:1004100080831092C1000895843081F028F48230E6
:1004200099F08330A9F008958830A9F08930C9F097
:100430008530B1F4809180008F7D03C08091800071
:100440008F7780938000089584B58F7784BD089559
:1004500084B58F7DFBCF8091B0008F778093B00003
:1004600008958091B0008F7DF9CFCF93DF9390E016
:10047000FC01E158FF4F24918A569F4FFC01849163
:100480008823C9F090E0880F991FFC01E954FF4FC1
:10049000A591B491FC01E355FF4FC591D491611131
:1004A0000DC09FB7F8948C91209582238C938881FE
:1004B000282328839FBFDF91CF910895623051F4A4
:1004C0009FB7F8943C91822F809583238C93E88189
:1004D0002E2BEFCF8FB7F894EC912E2B2C938FBF50
:1004E000EACF1F93CF93DF93282F30E0F901E8592B
:1004F000FF4F8491F901E158FF4FD491F901EA5679
:10050000FF4FC491CC23A9F0162F81110E940C0239
:10051000EC2FF0E0EE0FFF1FE355FF4FA591B491D4
:100520008FB7F894EC91111108C0D095DE23DC93BD
:100530008FBFDF91CF911F910895DE2BF8CF0895E3
:100540000E94D1010E949F020E947500C0E0D0E08D
:100550000E94AD002097E1F30E940000F9CF0895BA
:04056000F894FFCF3D
:00000001FF
